:100000000C9435010C9466010C9466010C94660105
:100010000C9466010C9466010C9466010C946601C4
:100020000C9466010C9466010C9466010C946601B4
:100030000C9466010C9466010C9466010C946601A4
:100040000C9466010C9466010C9466010C94660194
:100050000C9466010C9466010C9466010C945F0686
:100060000C9466010C9433070C9409070C946601F8
:100070000C9466010C9466010C9466010C94660164
:100080000C9466010C9466010C9466010C94660154
:100090000C94D3060C94A9060C9466010C9466018A
:1000A0000C9466010C9466010C9466010C94660134
:1000B0000C9466010C9466010C9466010C94660124
:1000C0000C9466010C9466010C9466010C94660114
:1000D0000C9466010C9466010C9466010C94660104
:1000E0000C9466010C9459030C9463030C9428033C
:1000F0000C943D030C94E9020C9439040C945D03B8
:100100000C9434030C942C030C94E9030C94D60443
:100110000C9425040C9455030C9437030C94410360
:100120000C944B030C9416040C9447030C944F034B
:100130000C9447040C94EE020C9489040C9467030D
:100140000C9469070C943003000021002400270060
:100150002A002D00300033000101000004010701D6
:100160000A0100002200250028002B002E0031008B
:10017000340002010000050108010B0100000A0B18
:1001800002090C0D0E080703040100000000000026
:10019000000000000000000000000000000000005F
:1001A000000000000000000012111000000000001C
:1001B000000000000000000000000000000000003F
:1001C0000000000020002300260029002C002F0042
:1001D00032000001000003010601090105050505C3
:1001E000070508080808020202020A0A08080404AF
:1001F00004040101010101010101030303030303DD
:100200000303040707070C0C0C0C0C0C0C0C02026B
:10021000020206060606060606060B0B0B0B0B0B68
:100220000B0B0102102020080810204010204080F5
:1002300002010201080402010102040810204080AA
:100240008040201008040201800402018040201038
:100250000804020108040201010204081020408081
:100260000102040810204080690711241FBECFEF4F
:10027000D1E2DEBFCDBF00E00CBF12E0A0E0B2E0F3
:10028000E0E0F8E100E00BBF02C007900D92A03360
:10029000B107D9F723E0A0E3B2E001C01D92A63870
:1002A000B207E1F711E0C5E3D1E000E006C0219715
:1002B0000109802FFE010E94BA09C433D10780E0F2
:1002C0000807A9F70E94DC070C94FE0B0C940000B1
:1002D000FC01A089B18982E08C93A485B5851C922C
:1002E000A685B7858FEC8C93108EA489B58986E09E
:1002F0008C93A289B3898C9180618C93A289B389F4
:100300008C9188608C93A289B3898C9180688C933E
:100310000288F389E02D80818F7D80830895CF92BC
:10032000DF92EF92FF92CF93DF93B0917A03A0E038
:100330008111AB2F80917B0390E0880F991FAC0156
:100340004E535E4FC0908003D0908103E0908203B3
:10035000F090830330E020E0FA01C591D491E88168
:10036000B90190E080E0EB23EA130AC02F5F3F4F12
:100370006C157D058E059F0578F36FEF7FEFCB0140
:10038000DF91CF91FF90EF90DF90CF900895CF93C2
:10039000DF9390E0FC01EE5DFD4F249184529E4F6F
:1003A000FC0184918823D1F090E0880F991FFC0113
:1003B000E85BFE4FA591B491FC01EE59FE4FC5914B
:1003C000D491623071F49FB7F8943C91822F80955C
:1003D00083238C93E8812E2B28839FBFDF91CF91BD
:1003E00008958FB7F894EC912E2B2C938FBFF6CFF6
:1003F0003FB7F8948091310290913202A09133027C
:10040000B091340226B5A89B05C02F3F19F0019684
:10041000A11DB11D3FBFBA2FA92F982F8827BC015E
:10042000CD01620F711D811D911D42E0660F771F86
:10043000881F991F4A95D1F708958F929F92AF9286
:10044000BF92CF92DF92EF92FF924B015C010E942C
:10045000F8016B017C010E94F8016C197D098E097D
:100460009F09683E734081059105A8F321E0821A37
:100470009108A108B10888EEC80E83E0D81EE11CDF
:10048000F11C81149104A104B10429F7FF90EF90AD
:10049000DF90CF90BF90AF909F908F9008958F92F4
:1004A0009F92AF92BF92EF92FF920F931F93CF93C1
:1004B000DF93CDB7DEB7C054D1400FB6F894DEBF9E
:1004C0000FBECDBF2FB7F8948091350290913602C0
:1004D000A0913702B09138022FBF40917C03509118
:1004E0007D0360917E0370917F038C019D01041B4D
:1004F000150B260B370BB901A801403D574061058C
:100500007105A0F480918403C05CDE4F0FB6F894AF
:10051000DEBF0FBECDBFDF91CF911F910F91FF9036
:10052000EF90BF90AF909F908F90089580937C0341
:1005300090937D03A0937E03B0937F031092770383
:100540001092760310927503109274031092730345
:1005500062E0809178030E94C70161E070E080E072
:1005600090E00E941D0261E0809178030E94C70123
:100570002091780330E0F901E458FE4F8491F901AD
:10058000EE5DFD4F949124523E4FF90124912223B8
:1005900009F433C0882311F181508231F8F4E82F37
:1005A000F0E08827E952FD4F8F4F0C94BA093003D1
:1005B0003403E90228032C03EE0237033D03410311
:1005C00047034B034F0355035903EE025D036303D7
:1005D0006703809180008F7780938000E22FF0E0A6
:1005E000EE0FFF1FEE59FE4FA591B4918FB7F8940F
:1005F000EC9190959E239C938FBF809179038551B8
:10060000823008F068C08BE291E10197F1F762E077
:10061000809178030E94C7018091850390E0823029
:10062000910538F0880F991F880F991F059701973A
:10063000F1F7F89480E00E948F016F3F7F4F8F4F5A
:100640009F4F09F04FC010928403789480E05CCFF4
:10065000809180008F7DC0CF80918000877FBCCF4C
:1006600084B58F7784BDBACF84B58F7DFBCF809161
:10067000B0008F778093B000B1CF8091B0008F7DB4
:10068000F9CF809190008F7780939000A7CF8091D1
:1006900090008F7DF9CF80919000877FF5CF80917A
:1006A000A0008F778093A00099CF8091A0008F7DCC
:1006B000F9CF8091A000877FF5CF809120018F77BF
:1006C000809320018BCF809120018F7DF9CF809185
:1006D0002001877FF5CF64E170E080E090E00E9428
:1006E0001D0295CF81E00E948F016F3F7F4F8F4F9A
:1006F0009F4F09F4A8CF9E012F5F3F4F79015E0104
:100700003FEBA31A3EEFB30A870180E00E948F01FE
:10071000F801608371838283938381E00E948F015B
:10072000F8016483758386839783085F1F4FA01643
:10073000B10659F7789430E020E0F701808091808D
:10074000A280B3804481558166817781FFEF8F1647
:100750009F06AF06BF0631F04F3F0FEF500760070F
:10076000700719F41092840371CFF90183E0F595B5
:10077000E7958A95E1F7ED58FC4F8081880F841644
:100780009506A606B70618F180832F5F3F4F18E045
:10079000E10EF11C2832310581F64091770320915A
:1007A000730380917403280F3327331F80917503DF
:1007B000280F311D80917603820F932F911D992769
:1007C0004817190679F681E0809384039DCE8160F5
:1007D000DBCFAF92BF92CF92DF92EF92FF920F9357
:1007E0001F93CF93DF936C017B018B01040F151FC7
:1007F000EB015E01AE18BF08C017D10759F069912F
:10080000D601ED91FC910190F081E02DC601199582
:10081000892B79F7C501DF91CF911F910F91FF903F
:10082000EF90DF90CF90BF90AF900895FC01538D73
:10083000448D252F30E0842F90E0821B930B5417BA
:1008400010F0CF96089501970895FC01918D828D47
:10085000981761F0A28DAE0FBF2FB11D5D968C91E0
:10086000928D9F5F9F73928F90E008958FEF9FEF1F
:100870000895FC01918D828D981731F0828DE80FDB
:10088000F11D858D90E008958FEF9FEF0895FC0195
:10089000918D228D892F90E0805C9F4F821B910962
:1008A0008F739927089589E392E00E94470421E01D
:1008B000892B09F420E0822F089586ED92E00E94B2
:1008C000470421E0892B09F420E0822F0895FC01E0
:1008D000A48DA80FB92FB11DA35ABF4F2C91848DA1
:1008E00090E001968F739927848FA689B7892C93FE
:1008F000A089B1898C91837080648C93938D848D51
:10090000981306C00288F389E02D80818F7D808353
:100910000895EF92FF920F931F93CF93DF93EC0113
:1009200081E0888F9B8D8C8D98131AC0E889F98996
:10093000808185FF15C09FB7F894EE89FF89608399
:10094000E889F98980818370806480839FBF81E01A
:1009500090E0DF91CF911F910F91FF90EF9008955C
:10096000F62E0B8D10E00F5F1F4F0F731127E02E37
:100970008C8D8E110CC00FB607FCFACFE889F9896F
:10098000808185FFF5CFCE010E946704F1CFEB8D0A
:10099000EC0FFD2FF11DE35AFF4FF0829FB7F89443
:1009A0000B8FEA89FB8980818062CFCFCF93DF9361
:1009B000EC01888D8823B9F0AA89BB89E889F98977
:1009C0008C9185FD03C0808186FD0DC00FB607FCAC
:1009D000F7CF8C9185FFF2CF808185FFEDCFCE01DF
:1009E0000E946704E9CFDF91CF91089580E090E005
:1009F000892B29F00E945D0481110E94000080E093
:100A000090E0892B29F00E94530481110E9400007C
:100A100080E090E0892B49F080E090E0892B29F07C
:100A20000E94000081110E94000080E090E0892B6C
:100A300049F080E090E0892B29F00E9400008111AC
:100A40000C9400000895FB0101900020E9F7319714
:100A5000AF01461B570B0C94E9038F929F92AF9204
:100A6000BF92EF92FF920F931F93CF93DF93CDB777
:100A7000DEB7A1970FB6F894DEBF0FBECDBF7C01E5
:100A8000FA01CB0119A2223008F42AE08E010F5D91
:100A90001F4F822E912CB12CA12CBF01A5019401D6
:100AA0000E949809F901CA016A300CF5605DD8010D
:100AB0006E938D01232B242B252B79F790E080E07A
:100AC000109721F0BD01C7010E942305A1960FB622
:100AD000F894DEBF0FBECDBFDF91CF911F910F9174
:100AE000FF90EF90BF90AF909F908F900895695CBA
:100AF000DECF2F923F924F925F926F927F928F92B2
:100B00009F92AF92BF92CF92DF92EF92FF921F938C
:100B1000CF93DF93EC016A017B01722EAB0196014A
:100B2000CB01B6010E94F90B62E172E0811126C08F
:100B300046015701E894B7F82FEF3FEF4FE75FE723
:100B4000C501B4010E94F90B81110CC02FEF3FEFDA
:100B50004FE75FE7C501B4010E942F0A66E172E02A
:100B6000181664F02FEF3FEF4FE75FE4C701B601BF
:100B70000E94870B1816B4F46AE172E0CE01DF918F
:100B8000CF911F91FF90EF90DF90CF90BF90AF90EB
:100B90009F908F907F906F905F904F903F902F909D
:100BA0000C9423052FEF3FEF4FE75FECC701B60131
:100BB0000E942F0A87FDE0CF20E030E0A901C701A5
:100BC000B6010E942F0A312C212C87FF09C06DE24B
:100BD000CE010E9489041C01F7FAF094F7F8F09412
:100BE00010E060E070E080E09FE3711641F020E0EB
:100BF00030E040E251E40E94340A1F5FF6CFA701C3
:100C000096010E94C3092B013C010E94A60A4B01D8
:100C10005C012AE0BC01A401CE010E942D057C01EB
:100C2000E20CF31C1123C1F1C501B4010E94D50AE5
:100C30009B01AC01C301B2010E94C2094B015C01DE
:100C40006EE2CE010E948904E80EF91E115020F1D7
:100C500020E030E040E251E4C501B4010E948C0B79
:100C60002B013C010E94A60A4B01B12CA12C2AE0C9
:100C7000B501A401CE010E942D05E80EF91EC501A3
:100C8000B4010E94D50A9B01AC01C301B2010E94CC
:100C9000C2094B015C01DACFC701DF91CF911F91EF
:100CA000FF90EF90DF90CF90BF90AF909F908F908C
:100CB0007F906F905F904F903F902F9008951F927C
:100CC0000F920FB60F9211242F933F938F939F9300
:100CD000AF93BF938091350290913602A091370275
:100CE000B09138023091300223E0230F2D3758F5B0
:100CF0000196A11DB11D209330028093350290937F
:100D00003602A0933702B09338028091310290915D
:100D10003202A0913302B09134020196A11DB11D9F
:100D20008093310290933202A0933302B093340245
:100D3000BF91AF919F918F913F912F910F900FBED7
:100D40000F901F90189526E8230F0296A11DB11D44
:100D5000D2CF1F920F920FB60F9211240BB60F92A3
:100D60002F933F934F935F936F937F938F939F93B3
:100D7000AF93BF93EF93FF9389E392E00E946704E0
:100D8000FF91EF91BF91AF919F918F917F916F9163
:100D90005F914F913F912F910F900BBE0F900FBE1F
:100DA0000F901F9018951F920F920FB60F9211245B
:100DB0000BB60F922F938F939F93EF93FF93E09136
:100DC0004902F0914A028081E0914F02F091500275
:100DD00082FD1DC09081809152028F5F8F732091A0
:100DE0005302821741F0E0915202F0E0E75CFD4FC0
:100DF000958F80935202FF91EF919F918F912F9148
:100E00000F900BBE0F900FBE0F901F901895808112
:100E1000F2CF1F920F920FB60F9211240BB60F92C2
:100E20002F933F934F935F936F937F938F939F93F2
:100E3000AF93BF93EF93FF9386ED92E00E94670418
:100E4000FF91EF91BF91AF919F918F917F916F91A2
:100E50005F914F913F912F910F900BBE0F900FBE5E
:100E60000F901F9018951F920F920FB60F9211249A
:100E70000BB60F922F938F939F93EF93FF93E09175
:100E8000E602F091E7028081E091EC02F091ED0240
:100E900082FD1DC090818091EF028F5F8F73209142
:100EA000F002821741F0E091EF02F0E0EA52FD4FCC
:100EB000958F8093EF02FF91EF919F918F912F91EA
:100EC0000F900BBE0F900FBE0F901F901895808152
:100ED000F2CFE9E3F2E01382128248EE53E060E0E1
:100EE00070E0448355836683778384E092E0918346
:100EF00080832DEC30E0358724872CEC30E0378779
:100F0000268728EC30E0318B208B29EC30E0338BC6
:100F1000228B2AEC30E0358B248B2EEC30E0378BA3
:100F2000268B118E128E138E148EE6EDF2E0138254
:100F3000128244835583668377839183808385EC13
:100F400090E09587848784EC90E09787868780EC93
:100F500090E0918B808B81EC90E0938B828B82EC84
:100F600090E0958B848B86EC90E0978B868B118E2E
:100F7000128E138E148EA3E7B3E082E015968C9345
:100F800015978BE016968C931697E4E2F2E0E491C5
:100F90001796EC931797EEEDF1E0E4911896EC9329
:100FA000189740E85EE360E070E01D964D935D9316
:100FB0006D937C9350970895789484B5826084BD36
:100FC00084B5816084BD85B5826085BD85B581604D
:100FD00085BD80916E00816080936E0010928100CB
:100FE0008091810082608093810080918100816086
:100FF0008093810080918000816080938000809147
:10100000B10084608093B1008091B00081608093D2
:10101000B000809191008260809391008091910056
:101020008160809391008091900081608093900016
:101030008091A10082608093A1008091A1008160D5
:101040008093A1008091A00081608093A000809196
:101050002101826080932101809121018160809330
:1010600021018091200181608093200180917A008C
:10107000846080937A0080917A00826080937A0005
:1010800080917A00816080937A0080917A008068F4
:1010900080937A001092C10086ED92E00E94680170
:1010A00089E392E00E94680162E0809178030E94E7
:1010B000C7012FB7F8948091350290913602A09124
:1010C0003702B09138022FBF805D9740A109B10966
:1010D00080937C0390937D03A0937E03B0937F0362
:1010E00087E3809385030E944F02882341F080911B
:1010F00079038C3009F463C048F48B3001F1C12CC2
:10110000D12C90ECE92E9FE7F92E43C08551823017
:10111000B0F7C09175036C2F70E0762F66276627B5
:101120007F7780917603682B90E080E00E94D50A5B
:101130002DEC3CEC4CEC5DE30E948C0B5CC06091B0
:10114000750370E090E080E00E94D50A6B017C019D
:10115000C0917603C7FF0AC0AC019B0160E070E05C
:1011600080E89FEB0E94C2096B017C01CF706C2F5D
:1011700070E090E080E00E94D70A2DEC3CEC4CEC53
:101180005DE30E948C0BA70196010E94C3096B01CD
:101190007C010E944F02882309F464C08091790386
:1011A0008B3030F08D3080F18551823008F46FC083
:1011B000812C912C80ECA82E8FE7B82E43C0C091D3
:1011C00075036C2F70E090E080E00E94D50A6B01FF
:1011D0007C01609176036F7070E090E080E00E9487
:1011E000D70A2DEC3CEC4CEC5DE30E948C0BA70184
:1011F00096010E94C3096B017C01C7FFCACFF7FAB1
:10120000F094F7F8F094C5CF6091740370E090E02B
:1012100080E00E94D70A2DEC3CEC4CEC5DE30E9490
:101220008C0B4B015C016091730370E090E080E0F7
:101230000E94D70A9B01AC01C501B4010E94C309F9
:101240004B015C01A7019601C701B6010E94F90B91
:10125000811108C0A5019401C501B4010E94F90BD8
:10126000882339F16EE172E086ED92E00E94230559
:1012700065E272E086ED92E00E94230568E873E182
:1012800080E090E00E941D020E94F6042CCF609145
:1012900073037091740376276727762790E080E0C8
:1012A0000E94D50A2DEC3CEC4CEC5DE30E948C0BCB
:1012B000C7CF68E272E086ED92E00E94230521E04C
:1012C000B701A60186ED92E00E9479056BE272E01B
:1012D00086ED92E00E94230520E0B501A40186ED91
:1012E00092E00E94790565E272E086ED92E00E944C
:1012F000230568E272E089E392E00E94230521E081
:10130000B701A60189E392E00E9479056BE272E0E1
:1013100089E392E00E94230520E0B501A40189E35E
:1013200092E00E94790565E272E089E392E0A4CF41
:10133000A1E21A2EAA1BBB1BFD010DC0AA1FBB1FD9
:10134000EE1FFF1FA217B307E407F50720F0A21B4B
:10135000B30BE40BF50B661F771F881F991F1A94B8
:1013600069F760957095809590959B01AC01BD01E2
:10137000CF010895EE0FFF1F881F8BBF0790F691D6
:10138000E02D19945058BB27AA270E94DA090C9423
:101390004D0B0E943F0B38F00E94460B20F039F4B1
:1013A0009F3F19F426F40C943C0B0EF4E095E7FBF8
:1013B0000C94360BE92F0E945E0B58F3BA176207A4
:1013C00073078407950720F079F4A6F50C94800B39
:1013D0000EF4E0950B2EBA2FA02D0B01B901900150
:1013E0000C01CA01A0011124FF27591B99F0593F94
:1013F00050F4503E68F11A16F040A22F232F342FDC
:101400004427585FF3CF469537952795A795F04029
:101410005395C9F77EF41F16BA0B620B730B840B3E
:10142000BAF09150A1F0FF0FBB1F661F771F881FF6
:10143000C2F70EC0BA0F621F731F841F48F487954E
:1014400077956795B795F7959E3F08F0B0CF939540
:10145000880F08F09927EE0F9795879508950E94B9
:10146000120B08F481E008950E94480A0C944D0B79
:101470000E94460B58F00E943F0B40F029F45F3F5A
:1014800029F00C94360B51110C94810B0C943C0BED
:101490000E945E0B68F39923B1F3552391F3951BDA
:1014A000550BBB27AA2762177307840738F09F5F85
:1014B0005F4F220F331F441FAA1FA9F335D00E2EF2
:1014C0003AF0E0E832D091505040E695001CCAF75F
:1014D0002BD0FE2F29D0660F771F881FBB1F261722
:1014E00037074807AB07B0E809F0BB0B802DBF01F9
:1014F000FF2793585F4F3AF09E3F510578F00C94C8
:10150000360B0C94810B5F3FE4F3983ED4F3869541
:1015100077956795B795F7959F5FC9F7880F911DE8
:101520009695879597F90895E1E0660F771F881FD4
:10153000BB1F621773078407BA0720F0621B730B87
:10154000840BBA0BEE1F88F7E09508950E94660B96
:1015500088F09F5798F0B92F9927B751B0F0E1F074
:10156000660F771F881F991F1AF0BA95C9F714C024
:10157000B13091F00E94800BB1E008950C94800B83
:10158000672F782F8827B85F39F0B93FCCF386955D
:1015900077956795B395D9F73EF4909580957095BA
:1015A00061957F4F8F4F9F4F0895E89409C097FB37
:1015B0003EF490958095709561957F4F8F4F9F4F2A
:1015C0009923A9F0F92F96E9BB279395F69587956E
:1015D00077956795B795F111F8CFFAF4BB0F11F431
:1015E00060FF1BC06F5F7F4F8F4F9F4F16C08823D8
:1015F00011F096E911C0772321F09EE8872F762F0E
:1016000005C0662371F096E8862F70E060E02AF04E
:101610009A95660F771F881FDAF7880F969587953A
:1016200097F90895990F0008550FAA0BE0E8FEEF0F
:1016300016161706E807F907C0F012161306E40796
:10164000F50798F0621B730B840B950B39F40A268F
:1016500061F0232B242B252B21F408950A2609F46D
:10166000A140A6958FEF811D811D089597F99F6771
:1016700080E870E060E008959FEF80EC089500241A
:101680000A941616170618060906089500240A94E7
:1016900012161306140605060895092E0394000C6D
:1016A00011F4882352F0BB0F40F4BF2B11F460FFFC
:1016B00004C06F5F7F4F8F4F9F4F089557FD905825
:1016C000440F551F59F05F3F71F04795880F97FB06
:1016D000991F61F09F3F79F08795089512161306C0
:1016E0001406551FF2CF4695F1DF08C016161706EF
:1016F0001806991FF1CF8695710561050894089524
:10170000E894BB2766277727CB0197F908950E94B5
:10171000120B08F48FEF08950E949F0B0C944D0B51
:101720000E943F0B38F00E94460B20F0952311F0E9
:101730000C94360B0C943C0B11240C94810B0E94DE
:101740005E0B70F3959FC1F3950F50E0551F629F9C
:10175000F001729FBB27F00DB11D639FAA27F00D0A
:10176000B11DAA1F649F6627B00DA11D661F829F31
:101770002227B00DA11D621F739FB00DA11D621F16
:10178000839FA00D611D221F749F3327A00D611D33
:10179000231F849F600D211D822F762F6A2F112415
:1017A0009F5750409AF0F1F088234AF0EE0FFF1F48
:1017B000BB1F661F771F881F91505040A9F79E3F9F
:1017C000510580F00C94360B0C94810B5F3FE4F3D1
:1017D000983ED4F3869577956795B795F795E795F5
:1017E0009F5FC1F7FE2B880F911D9695879597F9FE
:1017F00008950E94120B880B990B0895F894FFCF5F
:10180000000000008904E9031604D60447042504F7
:1018100039046E616E00696E66006F76660045522F
:1018200052455552000D0A00543D003B483D000012
:00000001FF
